{
  "contractName": "Erc20Factory",
  "abi": [
    {
      "anonymous": false,
      "inputs": [
        {
          "indexed": true,
          "internalType": "address",
          "name": "tokenAddress",
          "type": "address"
        },
        {
          "indexed": false,
          "internalType": "string",
          "name": "name",
          "type": "string"
        },
        {
          "indexed": false,
          "internalType": "string",
          "name": "symbol",
          "type": "string"
        }
      ],
      "name": "TokenCreated",
      "type": "event"
    },
    {
      "inputs": [
        {
          "internalType": "string",
          "name": "name",
          "type": "string"
        },
        {
          "internalType": "string",
          "name": "symbol",
          "type": "string"
        },
        {
          "internalType": "uint256",
          "name": "amount",
          "type": "uint256"
        }
      ],
      "name": "createNewToken",
      "outputs": [
        {
          "internalType": "address",
          "name": "",
          "type": "address"
        }
      ],
      "stateMutability": "nonpayable",
      "type": "function"
    }
  ],
  "bytecode": "0x608060405234801561001057600080fd5b506120d6806100206000396000f3fe60806040523480156200001157600080fd5b50600436106200002e5760003560e01c8063736e30261462000033575b600080fd5b6200005160048036038101906200004b9190620002c9565b62000069565b604051620000609190620003a8565b60405180910390f35b600080848433856040516200007e906200010a565b6200008d949392919062000469565b604051809103906000f080158015620000aa573d6000803e3d6000fd5b5090508073ffffffffffffffffffffffffffffffffffffffff167fffc04f682c7b287e4b552dacd4b833d7c33dc0549cd6da84388408e4830c05628686604051620000f7929190620004c4565b60405180910390a2809150509392505050565b611ba1806200050083390190565b6000604051905090565b600080fd5b600080fd5b600080fd5b600080fd5b6000601f19601f8301169050919050565b7f4e487b7100000000000000000000000000000000000000000000000000000000600052604160045260246000fd5b620001818262000136565b810181811067ffffffffffffffff82111715620001a357620001a262000147565b5b80604052505050565b6000620001b862000118565b9050620001c6828262000176565b919050565b600067ffffffffffffffff821115620001e957620001e862000147565b5b620001f48262000136565b9050602081019050919050565b82818337600083830152505050565b6000620002276200022184620001cb565b620001ac565b90508281526020810184848401111562000246576200024562000131565b5b6200025384828562000201565b509392505050565b600082601f8301126200027357620002726200012c565b5b81356200028584826020860162000210565b91505092915050565b6000819050919050565b620002a3816200028e565b8114620002af57600080fd5b50565b600081359050620002c38162000298565b92915050565b600080600060608486031215620002e557620002e462000122565b5b600084013567ffffffffffffffff81111562000306576200030562000127565b5b62000314868287016200025b565b935050602084013567ffffffffffffffff81111562000338576200033762000127565b5b62000346868287016200025b565b92505060406200035986828701620002b2565b9150509250925092565b600073ffffffffffffffffffffffffffffffffffffffff82169050919050565b6000620003908262000363565b9050919050565b620003a28162000383565b82525050565b6000602082019050620003bf600083018462000397565b92915050565b600081519050919050565b600082825260208201905092915050565b60005b8381101562000401578082015181840152602081019050620003e4565b8381111562000411576000848401525b50505050565b60006200042482620003c5565b620004308185620003d0565b935062000442818560208601620003e1565b6200044d8162000136565b840191505092915050565b62000463816200028e565b82525050565b6000608082019050818103600083015262000485818762000417565b905081810360208301526200049b818662000417565b9050620004ac604083018562000397565b620004bb606083018462000458565b95945050505050565b60006040820190508181036000830152620004e0818562000417565b90508181036020830152620004f6818462000417565b9050939250505056fe60806040523480156200001157600080fd5b5060405162001ba138038062001ba18339818101604052810190620000379190620004f5565b838381600390805190602001906200005192919062000208565b5080600490805190602001906200006a92919062000208565b5050506200009482670de0b6b3a764000083620000889190620005d4565b6200009e60201b60201c565b50505050620007a8565b600073ffffffffffffffffffffffffffffffffffffffff168273ffffffffffffffffffffffffffffffffffffffff16141562000111576040517f08c379a0000000000000000000000000000000000000000000000000000000008152600401620001089062000696565b60405180910390fd5b62000125600083836200020360201b60201c565b8060026000828254620001399190620006b8565b92505081905550806000808473ffffffffffffffffffffffffffffffffffffffff1673ffffffffffffffffffffffffffffffffffffffff1681526020019081526020016000206000828254620001909190620006b8565b925050819055508173ffffffffffffffffffffffffffffffffffffffff16600073ffffffffffffffffffffffffffffffffffffffff167fddf252ad1be2c89b69c2b068fc378daa952ba7f163c4a11628f55a4df523b3ef83604051620001f7919062000726565b60405180910390a35050565b505050565b828054620002169062000772565b90600052602060002090601f0160209004810192826200023a576000855562000286565b82601f106200025557805160ff191683800117855562000286565b8280016001018555821562000286579182015b828111156200028557825182559160200191906001019062000268565b5b50905062000295919062000299565b5090565b5b80821115620002b45760008160009055506001016200029a565b5090565b6000604051905090565b600080fd5b600080fd5b600080fd5b600080fd5b6000601f19601f8301169050919050565b7f4e487b7100000000000000000000000000000000000000000000000000000000600052604160045260246000fd5b6200032182620002d6565b810181811067ffffffffffffffff82111715620003435762000342620002e7565b5b80604052505050565b600062000358620002b8565b905062000366828262000316565b919050565b600067ffffffffffffffff821115620003895762000388620002e7565b5b6200039482620002d6565b9050602081019050919050565b60005b83811015620003c1578082015181840152602081019050620003a4565b83811115620003d1576000848401525b50505050565b6000620003ee620003e8846200036b565b6200034c565b9050828152602081018484840111156200040d576200040c620002d1565b5b6200041a848285620003a1565b509392505050565b600082601f8301126200043a5762000439620002cc565b5b81516200044c848260208601620003d7565b91505092915050565b600073ffffffffffffffffffffffffffffffffffffffff82169050919050565b6000620004828262000455565b9050919050565b620004948162000475565b8114620004a057600080fd5b50565b600081519050620004b48162000489565b92915050565b6000819050919050565b620004cf81620004ba565b8114620004db57600080fd5b50565b600081519050620004ef81620004c4565b92915050565b60008060008060808587031215620005125762000511620002c2565b5b600085015167ffffffffffffffff811115620005335762000532620002c7565b5b620005418782880162000422565b945050602085015167ffffffffffffffff811115620005655762000564620002c7565b5b620005738782880162000422565b93505060406200058687828801620004a3565b92505060606200059987828801620004de565b91505092959194509250565b7f4e487b7100000000000000000000000000000000000000000000000000000000600052601160045260246000fd5b6000620005e182620004ba565b9150620005ee83620004ba565b9250817fffffffffffffffffffffffffffffffffffffffffffffffffffffffffffffffff04831182151516156200062a5762000629620005a5565b5b828202905092915050565b600082825260208201905092915050565b7f45524332303a206d696e7420746f20746865207a65726f206164647265737300600082015250565b60006200067e601f8362000635565b91506200068b8262000646565b602082019050919050565b60006020820190508181036000830152620006b1816200066f565b9050919050565b6000620006c582620004ba565b9150620006d283620004ba565b9250827fffffffffffffffffffffffffffffffffffffffffffffffffffffffffffffffff038211156200070a5762000709620005a5565b5b828201905092915050565b6200072081620004ba565b82525050565b60006020820190506200073d600083018462000715565b92915050565b7f4e487b7100000000000000000000000000000000000000000000000000000000600052602260045260246000fd5b600060028204905060018216806200078b57607f821691505b60208210811415620007a257620007a162000743565b5b50919050565b6113e980620007b86000396000f3fe608060405234801561001057600080fd5b50600436106100a95760003560e01c80633950935111610071578063395093511461016857806370a082311461019857806395d89b41146101c8578063a457c2d7146101e6578063a9059cbb14610216578063dd62ed3e14610246576100a9565b806306fdde03146100ae578063095ea7b3146100cc57806318160ddd146100fc57806323b872dd1461011a578063313ce5671461014a575b600080fd5b6100b6610276565b6040516100c39190610c49565b60405180910390f35b6100e660048036038101906100e19190610d04565b610308565b6040516100f39190610d5f565b60405180910390f35b610104610326565b6040516101119190610d89565b60405180910390f35b610134600480360381019061012f9190610da4565b610330565b6040516101419190610d5f565b60405180910390f35b610152610431565b60405161015f9190610e13565b60405180910390f35b610182600480360381019061017d9190610d04565b61043a565b60405161018f9190610d5f565b60405180910390f35b6101b260048036038101906101ad9190610e2e565b6104e6565b6040516101bf9190610d89565b60405180910390f35b6101d061052e565b6040516101dd9190610c49565b60405180910390f35b61020060048036038101906101fb9190610d04565b6105c0565b60405161020d9190610d5f565b60405180910390f35b610230600480360381019061022b9190610d04565b6106b4565b60405161023d9190610d5f565b60405180910390f35b610260600480360381019061025b9190610e5b565b6106d2565b60405161026d9190610d89565b60405180910390f35b60606003805461028590610eca565b80601f01602080910402602001604051908101604052809291908181526020018280546102b190610eca565b80156102fe5780601f106102d3576101008083540402835291602001916102fe565b820191906000526020600020905b8154815290600101906020018083116102e157829003601f168201915b5050505050905090565b600061031c610315610759565b8484610761565b6001905092915050565b6000600254905090565b600061033d84848461092c565b6000600160008673ffffffffffffffffffffffffffffffffffffffff1673ffffffffffffffffffffffffffffffffffffffff1681526020019081526020016000206000610388610759565b73ffffffffffffffffffffffffffffffffffffffff1673ffffffffffffffffffffffffffffffffffffffff16815260200190815260200160002054905082811015610408576040517f08c379a00000000000000000000000000000000000000000000000000000000081526004016103ff90610f6e565b60405180910390fd5b61042585610414610759565b85846104209190610fbd565b610761565b60019150509392505050565b60006012905090565b60006104dc610447610759565b848460016000610455610759565b73ffffffffffffffffffffffffffffffffffffffff1673ffffffffffffffffffffffffffffffffffffffff16815260200190815260200160002060008873ffffffffffffffffffffffffffffffffffffffff1673ffffffffffffffffffffffffffffffffffffffff168152602001908152602001600020546104d79190610ff1565b610761565b6001905092915050565b60008060008373ffffffffffffffffffffffffffffffffffffffff1673ffffffffffffffffffffffffffffffffffffffff168152602001908152602001600020549050919050565b60606004805461053d90610eca565b80601f016020809104026020016040519081016040528092919081815260200182805461056990610eca565b80156105b65780601f1061058b576101008083540402835291602001916105b6565b820191906000526020600020905b81548152906001019060200180831161059957829003601f168201915b5050505050905090565b600080600160006105cf610759565b73ffffffffffffffffffffffffffffffffffffffff1673ffffffffffffffffffffffffffffffffffffffff16815260200190815260200160002060008573ffffffffffffffffffffffffffffffffffffffff1673ffffffffffffffffffffffffffffffffffffffff1681526020019081526020016000205490508281101561068c576040517f08c379a0000000000000000000000000000000000000000000000000000000008152600401610683906110b9565b60405180910390fd5b6106a9610697610759565b8585846106a49190610fbd565b610761565b600191505092915050565b60006106c86106c1610759565b848461092c565b6001905092915050565b6000600160008473ffffffffffffffffffffffffffffffffffffffff1673ffffffffffffffffffffffffffffffffffffffff16815260200190815260200160002060008373ffffffffffffffffffffffffffffffffffffffff1673ffffffffffffffffffffffffffffffffffffffff16815260200190815260200160002054905092915050565b600033905090565b600073ffffffffffffffffffffffffffffffffffffffff168373ffffffffffffffffffffffffffffffffffffffff1614156107d1576040517f08c379a00000000000000000000000000000000000000000000000000000000081526004016107c89061114b565b60405180910390fd5b600073ffffffffffffffffffffffffffffffffffffffff168273ffffffffffffffffffffffffffffffffffffffff161415610841576040517f08c379a0000000000000000000000000000000000000000000000000000000008152600401610838906111dd565b60405180910390fd5b80600160008573ffffffffffffffffffffffffffffffffffffffff1673ffffffffffffffffffffffffffffffffffffffff16815260200190815260200160002060008473ffffffffffffffffffffffffffffffffffffffff1673ffffffffffffffffffffffffffffffffffffffff168152602001908152602001600020819055508173ffffffffffffffffffffffffffffffffffffffff168373ffffffffffffffffffffffffffffffffffffffff167f8c5be1e5ebec7d5bd14f71427d1e84f3dd0314c0f7b2291e5b200ac8c7c3b9258360405161091f9190610d89565b60405180910390a3505050565b600073ffffffffffffffffffffffffffffffffffffffff168373ffffffffffffffffffffffffffffffffffffffff16141561099c576040517f08c379a00000000000000000000000000000000000000000000000000000000081526004016109939061126f565b60405180910390fd5b600073ffffffffffffffffffffffffffffffffffffffff168273ffffffffffffffffffffffffffffffffffffffff161415610a0c576040517f08c379a0000000000000000000000000000000000000000000000000000000008152600401610a0390611301565b60405180910390fd5b610a17838383610bab565b60008060008573ffffffffffffffffffffffffffffffffffffffff1673ffffffffffffffffffffffffffffffffffffffff16815260200190815260200160002054905081811015610a9d576040517f08c379a0000000000000000000000000000000000000000000000000000000008152600401610a9490611393565b60405180910390fd5b8181610aa99190610fbd565b6000808673ffffffffffffffffffffffffffffffffffffffff1673ffffffffffffffffffffffffffffffffffffffff16815260200190815260200160002081905550816000808573ffffffffffffffffffffffffffffffffffffffff1673ffffffffffffffffffffffffffffffffffffffff1681526020019081526020016000206000828254610b399190610ff1565b925050819055508273ffffffffffffffffffffffffffffffffffffffff168473ffffffffffffffffffffffffffffffffffffffff167fddf252ad1be2c89b69c2b068fc378daa952ba7f163c4a11628f55a4df523b3ef84604051610b9d9190610d89565b60405180910390a350505050565b505050565b600081519050919050565b600082825260208201905092915050565b60005b83811015610bea578082015181840152602081019050610bcf565b83811115610bf9576000848401525b50505050565b6000601f19601f8301169050919050565b6000610c1b82610bb0565b610c258185610bbb565b9350610c35818560208601610bcc565b610c3e81610bff565b840191505092915050565b60006020820190508181036000830152610c638184610c10565b905092915050565b600080fd5b600073ffffffffffffffffffffffffffffffffffffffff82169050919050565b6000610c9b82610c70565b9050919050565b610cab81610c90565b8114610cb657600080fd5b50565b600081359050610cc881610ca2565b92915050565b6000819050919050565b610ce181610cce565b8114610cec57600080fd5b50565b600081359050610cfe81610cd8565b92915050565b60008060408385031215610d1b57610d1a610c6b565b5b6000610d2985828601610cb9565b9250506020610d3a85828601610cef565b9150509250929050565b60008115159050919050565b610d5981610d44565b82525050565b6000602082019050610d746000830184610d50565b92915050565b610d8381610cce565b82525050565b6000602082019050610d9e6000830184610d7a565b92915050565b600080600060608486031215610dbd57610dbc610c6b565b5b6000610dcb86828701610cb9565b9350506020610ddc86828701610cb9565b9250506040610ded86828701610cef565b9150509250925092565b600060ff82169050919050565b610e0d81610df7565b82525050565b6000602082019050610e286000830184610e04565b92915050565b600060208284031215610e4457610e43610c6b565b5b6000610e5284828501610cb9565b91505092915050565b60008060408385031215610e7257610e71610c6b565b5b6000610e8085828601610cb9565b9250506020610e9185828601610cb9565b9150509250929050565b7f4e487b7100000000000000000000000000000000000000000000000000000000600052602260045260246000fd5b60006002820490506001821680610ee257607f821691505b60208210811415610ef657610ef5610e9b565b5b50919050565b7f45524332303a207472616e7366657220616d6f756e742065786365656473206160008201527f6c6c6f77616e6365000000000000000000000000000000000000000000000000602082015250565b6000610f58602883610bbb565b9150610f6382610efc565b604082019050919050565b60006020820190508181036000830152610f8781610f4b565b9050919050565b7f4e487b7100000000000000000000000000000000000000000000000000000000600052601160045260246000fd5b6000610fc882610cce565b9150610fd383610cce565b925082821015610fe657610fe5610f8e565b5b828203905092915050565b6000610ffc82610cce565b915061100783610cce565b9250827fffffffffffffffffffffffffffffffffffffffffffffffffffffffffffffffff0382111561103c5761103b610f8e565b5b828201905092915050565b7f45524332303a2064656372656173656420616c6c6f77616e63652062656c6f7760008201527f207a65726f000000000000000000000000000000000000000000000000000000602082015250565b60006110a3602583610bbb565b91506110ae82611047565b604082019050919050565b600060208201905081810360008301526110d281611096565b9050919050565b7f45524332303a20617070726f76652066726f6d20746865207a65726f2061646460008201527f7265737300000000000000000000000000000000000000000000000000000000602082015250565b6000611135602483610bbb565b9150611140826110d9565b604082019050919050565b6000602082019050818103600083015261116481611128565b9050919050565b7f45524332303a20617070726f766520746f20746865207a65726f20616464726560008201527f7373000000000000000000000000000000000000000000000000000000000000602082015250565b60006111c7602283610bbb565b91506111d28261116b565b604082019050919050565b600060208201905081810360008301526111f6816111ba565b9050919050565b7f45524332303a207472616e736665722066726f6d20746865207a65726f20616460008201527f6472657373000000000000000000000000000000000000000000000000000000602082015250565b6000611259602583610bbb565b9150611264826111fd565b604082019050919050565b600060208201905081810360008301526112888161124c565b9050919050565b7f45524332303a207472616e7366657220746f20746865207a65726f206164647260008201527f6573730000000000000000000000000000000000000000000000000000000000602082015250565b60006112eb602383610bbb565b91506112f68261128f565b604082019050919050565b6000602082019050818103600083015261131a816112de565b9050919050565b7f45524332303a207472616e7366657220616d6f756e742065786365656473206260008201527f616c616e63650000000000000000000000000000000000000000000000000000602082015250565b600061137d602683610bbb565b915061138882611321565b604082019050919050565b600060208201905081810360008301526113ac81611370565b905091905056fea2646970667358221220868afc8bce6c9eb05344ecf5b09dd37944825e308b66a99b0899e71d2d054e6864736f6c634300080a0033a2646970667358221220de82bc8bf3bf8dff0f6f721e3e117b592e0d85109294614b0a4a9332b160f88964736f6c634300080a0033",
  "immutableReferences": {},
  "source": "// SPDX-License-Identifier: MIT\npragma solidity ^0.8.0;\n\nimport \"./Token2.sol\";\n\ncontract Erc20Factory {\n    event TokenCreated(address indexed tokenAddress, string name, string symbol);\n\n    function createNewToken(\n        string memory name,\n        string memory symbol,\n        uint256 amount\n    ) external returns (address) {\n        ERC20 token = new Token2(name, symbol, msg.sender,amount);\n        emit TokenCreated(address(token), name, symbol);\n        return address(token);\n    }\n}\n",
  "sourcePath": "/home/ylgr/TestProject/substare-test-contract/contracts/Factory.sol",
  "compiler": {
    "name": "solc",
    "version": "0.8.10+commit.fc410830.Emscripten.clang"
  },
  "schemaVersion": "3.4.3",
  "updatedAt": "2021-11-24T09:43:25.342Z",
  "devdoc": {
    "kind": "dev",
    "methods": {},
    "version": 1
  },
  "userdoc": {
    "kind": "user",
    "methods": {},
    "version": 1
  }
}